{
  "_format": "hh-sol-artifact-1",
  "contractName": "DeposWithdToken",
  "sourceName": "contracts/DeposWithdToken.sol",
  "abi": [
    {
      "inputs": [
        {
          "internalType": "address",
          "name": "_to",
          "type": "address"
        },
        {
          "internalType": "uint256",
          "name": "_amount",
          "type": "uint256"
        }
      ],
      "name": "sendGHT",
      "outputs": [],
      "stateMutability": "nonpayable",
      "type": "function"
    }
  ],
  "bytecode": "0x608060405234801561001057600080fd5b50610184806100206000396000f3fe608060405234801561001057600080fd5b506004361061002b5760003560e01c806373ef6ec214610030575b600080fd5b61004361003e3660046100d8565b610045565b005b60405163a9059cbb60e01b8152737ddf41c60930621c53027cbe51652fc577ce10d290819063a9059cbb906100809086908690600401610135565b602060405180830381600087803b15801561009a57600080fd5b505af11580156100ae573d6000803e3d6000fd5b505050506040513d601f19601f820116820180604052508101906100d2919061010e565b50505050565b600080604083850312156100ea578182fd5b82356001600160a01b0381168114610100578283fd5b946020939093013593505050565b60006020828403121561011f578081fd5b8151801515811461012e578182fd5b9392505050565b6001600160a01b0392909216825260208201526040019056fea2646970667358221220c25f2392415ad03f94965c6bdb711cff783a06ce5ad2ed30dfbed79de93d658c64736f6c63430008000033",
  "linkReferences": {},
  "deployedLinkReferences": {}
}