{
  "_format": "hh-sol-artifact-1",
  "contractName": "GHToken",
  "sourceName": "contracts/GHToken.sol",
  "abi": [
    {
      "inputs": [],
      "stateMutability": "nonpayable",
      "type": "constructor"
    },
    {
      "anonymous": false,
      "inputs": [
        {
          "indexed": true,
          "internalType": "address",
          "name": "owner",
          "type": "address"
        },
        {
          "indexed": true,
          "internalType": "address",
          "name": "spender",
          "type": "address"
        },
        {
          "indexed": false,
          "internalType": "uint256",
          "name": "value",
          "type": "uint256"
        }
      ],
      "name": "Approval",
      "type": "event"
    },
    {
      "anonymous": false,
      "inputs": [
        {
          "indexed": true,
          "internalType": "address",
          "name": "previousOwner",
          "type": "address"
        },
        {
          "indexed": true,
          "internalType": "address",
          "name": "newOwner",
          "type": "address"
        }
      ],
      "name": "OwnershipTransferred",
      "type": "event"
    },
    {
      "anonymous": false,
      "inputs": [
        {
          "indexed": false,
          "internalType": "address",
          "name": "account",
          "type": "address"
        }
      ],
      "name": "Paused",
      "type": "event"
    },
    {
      "anonymous": false,
      "inputs": [
        {
          "indexed": false,
          "internalType": "uint256",
          "name": "id",
          "type": "uint256"
        }
      ],
      "name": "Snapshot",
      "type": "event"
    },
    {
      "anonymous": false,
      "inputs": [
        {
          "indexed": true,
          "internalType": "address",
          "name": "from",
          "type": "address"
        },
        {
          "indexed": true,
          "internalType": "address",
          "name": "to",
          "type": "address"
        },
        {
          "indexed": false,
          "internalType": "uint256",
          "name": "value",
          "type": "uint256"
        }
      ],
      "name": "Transfer",
      "type": "event"
    },
    {
      "anonymous": false,
      "inputs": [
        {
          "indexed": false,
          "internalType": "address",
          "name": "account",
          "type": "address"
        }
      ],
      "name": "Unpaused",
      "type": "event"
    },
    {
      "inputs": [],
      "name": "BP",
      "outputs": [
        {
          "internalType": "contract BPContract",
          "name": "",
          "type": "address"
        }
      ],
      "stateMutability": "view",
      "type": "function"
    },
    {
      "inputs": [],
      "name": "BPDisabledForever",
      "outputs": [
        {
          "internalType": "bool",
          "name": "",
          "type": "bool"
        }
      ],
      "stateMutability": "view",
      "type": "function"
    },
    {
      "inputs": [
        {
          "internalType": "address",
          "name": "owner",
          "type": "address"
        },
        {
          "internalType": "address",
          "name": "spender",
          "type": "address"
        }
      ],
      "name": "allowance",
      "outputs": [
        {
          "internalType": "uint256",
          "name": "",
          "type": "uint256"
        }
      ],
      "stateMutability": "view",
      "type": "function"
    },
    {
      "inputs": [
        {
          "internalType": "address",
          "name": "spender",
          "type": "address"
        },
        {
          "internalType": "uint256",
          "name": "amount",
          "type": "uint256"
        }
      ],
      "name": "approve",
      "outputs": [
        {
          "internalType": "bool",
          "name": "",
          "type": "bool"
        }
      ],
      "stateMutability": "nonpayable",
      "type": "function"
    },
    {
      "inputs": [
        {
          "internalType": "address",
          "name": "account",
          "type": "address"
        }
      ],
      "name": "balanceOf",
      "outputs": [
        {
          "internalType": "uint256",
          "name": "",
          "type": "uint256"
        }
      ],
      "stateMutability": "view",
      "type": "function"
    },
    {
      "inputs": [
        {
          "internalType": "address",
          "name": "account",
          "type": "address"
        },
        {
          "internalType": "uint256",
          "name": "snapshotId",
          "type": "uint256"
        }
      ],
      "name": "balanceOfAt",
      "outputs": [
        {
          "internalType": "uint256",
          "name": "",
          "type": "uint256"
        }
      ],
      "stateMutability": "view",
      "type": "function"
    },
    {
      "inputs": [],
      "name": "bpEnabled",
      "outputs": [
        {
          "internalType": "bool",
          "name": "",
          "type": "bool"
        }
      ],
      "stateMutability": "view",
      "type": "function"
    },
    {
      "inputs": [
        {
          "internalType": "uint256",
          "name": "amount",
          "type": "uint256"
        }
      ],
      "name": "burn",
      "outputs": [],
      "stateMutability": "nonpayable",
      "type": "function"
    },
    {
      "inputs": [
        {
          "internalType": "address",
          "name": "account",
          "type": "address"
        },
        {
          "internalType": "uint256",
          "name": "amount",
          "type": "uint256"
        }
      ],
      "name": "burnFrom",
      "outputs": [],
      "stateMutability": "nonpayable",
      "type": "function"
    },
    {
      "inputs": [],
      "name": "decimals",
      "outputs": [
        {
          "internalType": "uint8",
          "name": "",
          "type": "uint8"
        }
      ],
      "stateMutability": "view",
      "type": "function"
    },
    {
      "inputs": [
        {
          "internalType": "address",
          "name": "spender",
          "type": "address"
        },
        {
          "internalType": "uint256",
          "name": "subtractedValue",
          "type": "uint256"
        }
      ],
      "name": "decreaseAllowance",
      "outputs": [
        {
          "internalType": "bool",
          "name": "",
          "type": "bool"
        }
      ],
      "stateMutability": "nonpayable",
      "type": "function"
    },
    {
      "inputs": [
        {
          "internalType": "address",
          "name": "spender",
          "type": "address"
        },
        {
          "internalType": "uint256",
          "name": "addedValue",
          "type": "uint256"
        }
      ],
      "name": "increaseAllowance",
      "outputs": [
        {
          "internalType": "bool",
          "name": "",
          "type": "bool"
        }
      ],
      "stateMutability": "nonpayable",
      "type": "function"
    },
    {
      "inputs": [],
      "name": "name",
      "outputs": [
        {
          "internalType": "string",
          "name": "",
          "type": "string"
        }
      ],
      "stateMutability": "view",
      "type": "function"
    },
    {
      "inputs": [],
      "name": "owner",
      "outputs": [
        {
          "internalType": "address",
          "name": "",
          "type": "address"
        }
      ],
      "stateMutability": "view",
      "type": "function"
    },
    {
      "inputs": [],
      "name": "pause",
      "outputs": [],
      "stateMutability": "nonpayable",
      "type": "function"
    },
    {
      "inputs": [],
      "name": "paused",
      "outputs": [
        {
          "internalType": "bool",
          "name": "",
          "type": "bool"
        }
      ],
      "stateMutability": "view",
      "type": "function"
    },
    {
      "inputs": [],
      "name": "renounceOwnership",
      "outputs": [],
      "stateMutability": "nonpayable",
      "type": "function"
    },
    {
      "inputs": [
        {
          "internalType": "address",
          "name": "_bp",
          "type": "address"
        }
      ],
      "name": "setBPAddrss",
      "outputs": [],
      "stateMutability": "nonpayable",
      "type": "function"
    },
    {
      "inputs": [],
      "name": "setBotProtectionDisableForever",
      "outputs": [],
      "stateMutability": "nonpayable",
      "type": "function"
    },
    {
      "inputs": [
        {
          "internalType": "bool",
          "name": "_enabled",
          "type": "bool"
        }
      ],
      "name": "setBpEnabled",
      "outputs": [],
      "stateMutability": "nonpayable",
      "type": "function"
    },
    {
      "inputs": [],
      "name": "snapshot",
      "outputs": [],
      "stateMutability": "nonpayable",
      "type": "function"
    },
    {
      "inputs": [],
      "name": "symbol",
      "outputs": [
        {
          "internalType": "string",
          "name": "",
          "type": "string"
        }
      ],
      "stateMutability": "view",
      "type": "function"
    },
    {
      "inputs": [],
      "name": "totalSupply",
      "outputs": [
        {
          "internalType": "uint256",
          "name": "",
          "type": "uint256"
        }
      ],
      "stateMutability": "view",
      "type": "function"
    },
    {
      "inputs": [
        {
          "internalType": "uint256",
          "name": "snapshotId",
          "type": "uint256"
        }
      ],
      "name": "totalSupplyAt",
      "outputs": [
        {
          "internalType": "uint256",
          "name": "",
          "type": "uint256"
        }
      ],
      "stateMutability": "view",
      "type": "function"
    },
    {
      "inputs": [
        {
          "internalType": "address",
          "name": "to",
          "type": "address"
        },
        {
          "internalType": "uint256",
          "name": "amount",
          "type": "uint256"
        }
      ],
      "name": "transfer",
      "outputs": [
        {
          "internalType": "bool",
          "name": "",
          "type": "bool"
        }
      ],
      "stateMutability": "nonpayable",
      "type": "function"
    },
    {
      "inputs": [
        {
          "internalType": "address",
          "name": "from",
          "type": "address"
        },
        {
          "internalType": "address",
          "name": "to",
          "type": "address"
        },
        {
          "internalType": "uint256",
          "name": "amount",
          "type": "uint256"
        }
      ],
      "name": "transferFrom",
      "outputs": [
        {
          "internalType": "bool",
          "name": "",
          "type": "bool"
        }
      ],
      "stateMutability": "nonpayable",
      "type": "function"
    },
    {
      "inputs": [
        {
          "internalType": "address",
          "name": "newOwner",
          "type": "address"
        }
      ],
      "name": "transferOwnership",
      "outputs": [],
      "stateMutability": "nonpayable",
      "type": "function"
    },
    {
      "inputs": [],
      "name": "unpause",
      "outputs": [],
      "stateMutability": "nonpayable",
      "type": "function"
    }
  ],
  "bytecode": "0x6080604052600a805460ff60a81b191690553480156200001e57600080fd5b506040518060400160405280600781526020016623a42a37b5b2b760c91b8152506040518060400160405280600381526020016211d21560ea1b815250816003908051906020019062000073929190620004b8565b50805162000089906004906020840190620004b8565b505050620000a6620000a0620000eb60201b60201c565b620000ef565b6009805460ff60a01b19169055620000e533620000c262000141565b620000cf90600a62000654565b620000df90630510ff406200074c565b62000146565b620007db565b3390565b600980546001600160a01b038381166001600160a01b0319831681179093556040519116919082907f8be0079c531659141344cd1fd0a4f28419497f9722a3daafe3b4186f6b6457e090600090a35050565b601290565b6001600160a01b038216620001785760405162461bcd60e51b81526004016200016f90620005ac565b60405180910390fd5b620001866000838362000208565b80600260008282546200019a9190620005ec565b90915550506001600160a01b038216600081815260208190526040808220805485019055517fddf252ad1be2c89b69c2b068fc378daa952ba7f163c4a11628f55a4df523b3ef90620001ee908590620005e3565b60405180910390a36200020460008383620002c4565b5050565b62000212620002dc565b600a54600160a01b900460ff168015620002365750600a54600160a81b900460ff16155b15620002a757600a54604051637e2f3afd60e01b81526001600160a01b0390911690637e2f3afd9062000272908690869086906004016200055e565b600060405180830381600087803b1580156200028d57600080fd5b505af1158015620002a2573d6000803e3d6000fd5b505050505b620002bf8383836200030860201b6200078f1760201c565b505050565b620002bf838383620002bf60201b620007e71760201c565b620002e66200037a565b15620003065760405162461bcd60e51b81526004016200016f9062000582565b565b62000320838383620002bf60201b620007e71760201c565b6001600160a01b0383166200034a576200033a826200038a565b62000344620003bb565b620002bf565b6001600160a01b03821662000364576200033a836200038a565b6200036f836200038a565b620002bf826200038a565b600954600160a01b900460ff1690565b6001600160a01b0381166000908152600560205260409020620003b890620003b283620003cb565b620003ea565b50565b620003066006620003b262000439565b6001600160a01b0381166000908152602081905260409020545b919050565b6000620003f66200043f565b90508062000404846200045d565b1015620002bf578254600180820185556000858152602080822090930193909355938401805494850181558252902090910155565b60025490565b6000620004586008620004b460201b620007ec1760201c565b905090565b80546000906200047057506000620003e5565b8154829062000482906001906200076e565b81548110620004a157634e487b7160e01b600052603260045260246000fd5b90600052602060002001549050620003e5565b5490565b828054620004c69062000788565b90600052602060002090601f016020900481019282620004ea576000855562000535565b82601f106200050557805160ff191683800117855562000535565b8280016001018555821562000535579182015b828111156200053557825182559160200191906001019062000518565b506200054392915062000547565b5090565b5b8082111562000543576000815560010162000548565b6001600160a01b039384168152919092166020820152604081019190915260600190565b60208082526010908201526f14185d5cd8589b194e881c185d5cd95960821b604082015260600190565b6020808252601f908201527f45524332303a206d696e7420746f20746865207a65726f206164647265737300604082015260600190565b90815260200190565b60008219821115620006025762000602620007c5565b500190565b80825b60018086116200061b57506200064b565b818704821115620006305762000630620007c5565b808616156200063e57918102915b9490941c9380026200060a565b94509492505050565b60006200066860001960ff8516846200066f565b9392505050565b600082620006805750600162000668565b816200068f5750600062000668565b8160018114620006a85760028114620006b357620006e7565b600191505062000668565b60ff841115620006c757620006c7620007c5565b6001841b915084821115620006e057620006e0620007c5565b5062000668565b5060208310610133831016604e8410600b84101617156200071f575081810a83811115620007195762000719620007c5565b62000668565b6200072e848484600162000607565b808604821115620007435762000743620007c5565b02949350505050565b6000816000190483118215151615620007695762000769620007c5565b500290565b600082821015620007835762000783620007c5565b500390565b6002810460018216806200079d57607f821691505b60208210811415620007bf57634e487b7160e01b600052602260045260246000fd5b50919050565b634e487b7160e01b600052601160045260246000fd5b6115f480620007eb6000396000f3fe608060405234801561001057600080fd5b50600436106101c45760003560e01c806370a08231116100f9578063981b24d011610097578063a9059cbb11610071578063a9059cbb1461034e578063c818c28014610361578063dd62ed3e14610369578063f2fde38b1461037c576101c4565b8063981b24d0146103205780639cfdbd5e14610333578063a457c2d71461033b576101c4565b80638456cb59116100d35780638456cb59146102f35780638da5cb5b146102fb57806395d89b41146103105780639711715a14610318576101c4565b806370a08231146102c5578063715018a6146102d857806379cc6790146102e0576101c4565b8063313ce567116101665780633f4ba83a116101405780633f4ba83a1461028f57806342966c68146102975780634ee2cd7e146102aa5780635c975abb146102bd576101c4565b8063313ce5671461025f5780633461680514610274578063395093511461027c576101c4565b806318160ddd116101a257806318160ddd1461021c578063206a8a221461023157806323b872dd1461024457806326898da914610257576101c4565b806306fdde03146101c9578063095ea7b3146101e75780631138980814610207575b600080fd5b6101d161038f565b6040516101de91906110f0565b60405180910390f35b6101fa6101f536600461104c565b610421565b6040516101de91906110e5565b61021a610215366004610fc5565b610445565b005b6102246104a1565b6040516101de9190611507565b61021a61023f366004611075565b6104a7565b6101fa610252366004611011565b6104cd565b6101fa6104fb565b61026761050b565b6040516101de9190611510565b6101fa610510565b6101fa61028a36600461104c565b610520565b61021a61054c565b61021a6102a5366004611095565b61055e565b6102246102b836600461104c565b610572565b6101fa6105bb565b6102246102d3366004610fc5565b6105cb565b61021a6105ea565b61021a6102ee36600461104c565b6105fc565b61021a61061c565b61030361062c565b6040516101de91906110ad565b6101d161063b565b61021a61064a565b61022461032e366004611095565b61065a565b61030361068a565b6101fa61034936600461104c565b610699565b6101fa61035c36600461104c565b6106e1565b61021a6106f9565b610224610377366004610fdf565b61072d565b61021a61038a366004610fc5565b610758565b60606003805461039e9061156d565b80601f01602080910402602001604051908101604052809291908181526020018280546103ca9061156d565b80156104175780601f106103ec57610100808354040283529160200191610417565b820191906000526020600020905b8154815290600101906020018083116103fa57829003601f168201915b5050505050905090565b60008061042c6107f0565b90506104398185856107f4565b60019150505b92915050565b61044d6108a8565b600a546001600160a01b03161561047f5760405162461bcd60e51b81526004016104769061135c565b60405180910390fd5b600a80546001600160a01b0319166001600160a01b0392909216919091179055565b60025490565b6104af6108a8565b600a8054911515600160a01b0260ff60a01b19909216919091179055565b6000806104d86107f0565b90506104e58582856108e7565b6104f0858585610931565b506001949350505050565b600a54600160a01b900460ff1681565b601290565b600a54600160a81b900460ff1681565b60008061052b6107f0565b905061043981858561053d858961072d565b610547919061151e565b6107f4565b6105546108a8565b61055c610a32565b565b61056f6105696107f0565b82610a87565b50565b6001600160a01b038216600090815260056020526040812081908190610599908590610b5e565b91509150816105b0576105ab856105cb565b6105b2565b805b95945050505050565b600954600160a01b900460ff1690565b6001600160a01b0381166000908152602081905260409020545b919050565b6105f26108a8565b61055c6000610c0a565b61060e826106086107f0565b836108e7565b6106188282610a87565b5050565b6106246108a8565b61055c610c5c565b6009546001600160a01b031690565b60606004805461039e9061156d565b6106526108a8565b61056f610ca0565b600080600061066a846006610b5e565b91509150816106805761067b6104a1565b610682565b805b949350505050565b600a546001600160a01b031681565b6000806106a46107f0565b905060006106b2828661072d565b9050838110156106d45760405162461bcd60e51b8152600401610476906114c2565b6104f082868684036107f4565b6000806106ec6107f0565b9050610439818585610931565b6107016108a8565b600a54600160a81b900460ff161561071857600080fd5b600a805460ff60a81b1916600160a81b179055565b6001600160a01b03918216600090815260016020908152604080832093909416825291909152205490565b6107606108a8565b6001600160a01b0381166107865760405162461bcd60e51b81526004016104769061122d565b61056f81610c0a565b61079a8383836107e7565b6001600160a01b0383166107be576107b182610cf4565b6107b9610d1e565b6107e7565b6001600160a01b0382166107d5576107b183610cf4565b6107de83610cf4565b6107e782610cf4565b505050565b5490565b3390565b6001600160a01b03831661081a5760405162461bcd60e51b81526004016104769061144e565b6001600160a01b0382166108405760405162461bcd60e51b815260040161047690611273565b6001600160a01b0380841660008181526001602090815260408083209487168084529490915290819020849055517f8c5be1e5ebec7d5bd14f71427d1e84f3dd0314c0f7b2291e5b200ac8c7c3b9259061089b908590611507565b60405180910390a3505050565b6108b06107f0565b6001600160a01b03166108c161062c565b6001600160a01b03161461055c5760405162461bcd60e51b815260040161047690611393565b60006108f3848461072d565b9050600019811461092b578181101561091e5760405162461bcd60e51b8152600401610476906112b5565b61092b84848484036107f4565b50505050565b6001600160a01b0383166109575760405162461bcd60e51b815260040161047690611409565b6001600160a01b03821661097d5760405162461bcd60e51b81526004016104769061117a565b610988838383610d2b565b6001600160a01b038316600090815260208190526040902054818110156109c15760405162461bcd60e51b8152600401610476906112ec565b6001600160a01b0380851660008181526020819052604080822086860390559286168082529083902080548601905591517fddf252ad1be2c89b69c2b068fc378daa952ba7f163c4a11628f55a4df523b3ef90610a1f908690611507565b60405180910390a361092b848484610dcd565b610a3a610dd8565b6009805460ff60a01b191690557f5db9ee0a495bf2e6ff9c91a7834c1ba4fdd244a5e8aa4e537bd38aeae4b073aa610a706107f0565b604051610a7d91906110ad565b60405180910390a1565b6001600160a01b038216610aad5760405162461bcd60e51b8152600401610476906113c8565b610ab982600083610d2b565b6001600160a01b03821660009081526020819052604090205481811015610af25760405162461bcd60e51b8152600401610476906111eb565b6001600160a01b0383166000818152602081905260408082208585039055600280548690039055519091907fddf252ad1be2c89b69c2b068fc378daa952ba7f163c4a11628f55a4df523b3ef90610b4a908690611507565b60405180910390a36107e783600084610dcd565b60008060008411610b815760405162461bcd60e51b815260040161047690611492565b610b89610dfc565b841115610ba85760405162461bcd60e51b815260040161047690611143565b6000610bb48486610e0d565b8454909150811415610bcd576000809250925050610c03565b6001846001018281548110610bf257634e487b7160e01b600052603260045260246000fd5b906000526020600020015492509250505b9250929050565b600980546001600160a01b038381166001600160a01b0319831681179093556040519116919082907f8be0079c531659141344cd1fd0a4f28419497f9722a3daafe3b4186f6b6457e090600090a35050565b610c64610eac565b6009805460ff60a01b1916600160a01b1790557f62e78cea01bee320cd4e420270b5ea74000d11b0c9f74754ebdbfc544b05a258610a706107f0565b6000610cac6008610ed1565b6000610cb6610dfc565b90507f8030e83b04d87bef53480e26263266d6ca66863aa8506aca6f2559d18aa1cb6781604051610ce79190611507565b60405180910390a1905090565b6001600160a01b038116600090815260056020526040902061056f90610d19836105cb565b610eda565b61055c6006610d196104a1565b610d33610eac565b600a54600160a01b900460ff168015610d565750600a54600160a81b900460ff16155b15610dc257600a54604051637e2f3afd60e01b81526001600160a01b0390911690637e2f3afd90610d8f908690869086906004016110c1565b600060405180830381600087803b158015610da957600080fd5b505af1158015610dbd573d6000803e3d6000fd5b505050505b6107e783838361078f565b6107e78383836107e7565b610de06105bb565b61055c5760405162461bcd60e51b8152600401610476906111bd565b6000610e0860086107ec565b905090565b8154600090610e1e5750600061043f565b82546000905b80821015610e68576000610e388383610f24565b905084610e458783610f46565b541115610e5457809150610e62565b610e5f81600161151e565b92505b50610e24565b600082118015610e8b575083610e8886610e83600186611556565b610f46565b54145b15610ea457610e9b600183611556565b9250505061043f565b50905061043f565b610eb46105bb565b1561055c5760405162461bcd60e51b815260040161047690611332565b80546001019055565b6000610ee4610dfc565b905080610ef084610f5a565b10156107e7578254600180820185556000858152602080822090930193909355938401805494850181558252902090910155565b6000610f336002848418611536565b610f3f9084841661151e565b9392505050565b600082815260208120820161068281610fab565b8054600090610f6b575060006105e5565b81548290610f7b90600190611556565b81548110610f9957634e487b7160e01b600052603260045260246000fd5b906000526020600020015490506105e5565b90565b80356001600160a01b03811681146105e557600080fd5b600060208284031215610fd6578081fd5b610f3f82610fae565b60008060408385031215610ff1578081fd5b610ffa83610fae565b915061100860208401610fae565b90509250929050565b600080600060608486031215611025578081fd5b61102e84610fae565b925061103c60208501610fae565b9150604084013590509250925092565b6000806040838503121561105e578182fd5b61106783610fae565b946020939093013593505050565b600060208284031215611086578081fd5b81358015158114610f3f578182fd5b6000602082840312156110a6578081fd5b5035919050565b6001600160a01b0391909116815260200190565b6001600160a01b039384168152919092166020820152604081019190915260600190565b901515815260200190565b6000602080835283518082850152825b8181101561111c57858101830151858201604001528201611100565b8181111561112d5783604083870101525b50601f01601f1916929092016040019392505050565b6020808252601d908201527f4552433230536e617073686f743a206e6f6e6578697374656e74206964000000604082015260600190565b60208082526023908201527f45524332303a207472616e7366657220746f20746865207a65726f206164647260408201526265737360e81b606082015260800190565b60208082526014908201527314185d5cd8589b194e881b9bdd081c185d5cd95960621b604082015260600190565b60208082526022908201527f45524332303a206275726e20616d6f756e7420657863656564732062616c616e604082015261636560f01b606082015260800190565b60208082526026908201527f4f776e61626c653a206e6577206f776e657220697320746865207a65726f206160408201526564647265737360d01b606082015260800190565b60208082526022908201527f45524332303a20617070726f766520746f20746865207a65726f206164647265604082015261737360f01b606082015260800190565b6020808252601d908201527f45524332303a20696e73756666696369656e7420616c6c6f77616e6365000000604082015260600190565b60208082526026908201527f45524332303a207472616e7366657220616d6f756e7420657863656564732062604082015265616c616e636560d01b606082015260800190565b60208082526010908201526f14185d5cd8589b194e881c185d5cd95960821b604082015260600190565b6020808252601c908201527f43616e206f6e6c7920626520696e697469616c697a6564206f6e636500000000604082015260600190565b6020808252818101527f4f776e61626c653a2063616c6c6572206973206e6f7420746865206f776e6572604082015260600190565b60208082526021908201527f45524332303a206275726e2066726f6d20746865207a65726f206164647265736040820152607360f81b606082015260800190565b60208082526025908201527f45524332303a207472616e736665722066726f6d20746865207a65726f206164604082015264647265737360d81b606082015260800190565b60208082526024908201527f45524332303a20617070726f76652066726f6d20746865207a65726f206164646040820152637265737360e01b606082015260800190565b60208082526016908201527504552433230536e617073686f743a20696420697320360541b604082015260600190565b60208082526025908201527f45524332303a2064656372656173656420616c6c6f77616e63652062656c6f77604082015264207a65726f60d81b606082015260800190565b90815260200190565b60ff91909116815260200190565b60008219821115611531576115316115a8565b500190565b60008261155157634e487b7160e01b81526012600452602481fd5b500490565b600082821015611568576115686115a8565b500390565b60028104600182168061158157607f821691505b602082108114156115a257634e487b7160e01b600052602260045260246000fd5b50919050565b634e487b7160e01b600052601160045260246000fdfea2646970667358221220b7f1ac835c654fc42846ee281bb3fc4fd66527c12ae1cb324d5cba55271494df64736f6c63430008000033",
  "linkReferences": {},
  "deployedLinkReferences": {}
}